:100000000C945D000C9485000C9485000C94850084
:100010000C9485000C9485000C9485000C9485004C
:100020000C9485000C9485000C9485000C94590662
:100030000C9485000C9485000C9485000C9485002C
:100040000C940F060C9485000C94DD050C94B705F8
:100050000C9485000C9485000C9485000C9485000C
:100060000C9485000C9485000000000024002700FB
:100070002A0000000000250028002B0004040404CE
:100080000404040402020202020203030303030342
:10009000010204081020408001020408102001021F
:1000A00004081020000000080002010000030407FB
:1000B0000000000000000000150711241FBECFEF54
:1000C000D8E0DEBFCDBF12E0A0E0B1E0E0ECF3E1AC
:1000D00002C005900D92A633B107D9F723E0A6E33D
:1000E000B2E001C01D92A432B207E1F710E0CDE505
:1000F000D0E004C02197FE010E94D809CC35D10779
:10010000C9F70E94B9070C94DE090C940000FC01A9
:10011000538D448D252F30E0842F90E0821B930B6C
:10012000541710F0CF96089501970895FC01918D12
:10013000828D981761F0A28DAE0FBF2FB11D5D9615
:100140008C91928D9F5F9F73928F90E008958FEFB7
:100150009FEF0895FC01918D828D981731F0828D6B
:10016000E80FF11D858D90E008958FEF9FEF0895C2
:10017000FC01918D228D892F90E0805C9F4F821B26
:1001800091098F7399270895FC01A48DA80FB92FA9
:10019000B11DA35ABF4F2C91848D90E001968F73AF
:1001A0009927848FA689B7892C93A089B1898C91CE
:1001B000837080648C93938D848D981306C002881D
:1001C000F389E02D80818F7D80830895EF92FF92E7
:1001D0000F931F93CF93DF93EC0181E0888F9B8D6A
:1001E0008C8D98131AC0E889F989808185FF15C024
:1001F0009FB7F894EE89FF896083E889F989808147
:100200008370806480839FBF81E090E0DF91CF9115
:100210001F910F91FF90EF900895F62E0B8D10E037
:100220000F5F1F4F0F731127E02E8C8D8E110CC0A6
:100230000FB607FCFACFE889F989808185FFF5CFF1
:10024000CE010E94C400F1CFEB8DEC0FFD2FF11D0C
:10025000E35AFF4FF0829FB7F8940B8FEA89FB892E
:1002600080818062CFCFCF93DF93EC01888D88238C
:10027000B9F0AA89BB89E889F9898C9185FD03C009
:10028000808186FD0DC00FB607FCF7CF8C9185FFEE
:10029000F2CF808185FFEDCFCE010E94C400E9CF6F
:1002A000DF91CF91089584E492E00E94B80021E0AC
:1002B000892B09F420E0822F089580E090E0892BBB
:1002C00029F00E94530181110C9400000895AF920F
:1002D000BF92CF92DF92EF92FF920F931F93CF9333
:1002E000DF936C017B018B01040F151FEB015E0195
:1002F000AE18BF08C017D10759F06991D601ED912A
:10030000FC910190F081E02DC6010995892B79F7C8
:10031000C501DF91CF911F910F91FF90EF90DF907A
:10032000CF90BF90AF90089590E0FC01EC55FF4F47
:100330002491FC01E057FF4F3491FC01E458FF4F3A
:10034000E491EE23C9F0222339F0233001F1A8F41F
:10035000213019F1223029F1F0E0EE0FFF1FEE58A5
:10036000FF4FA591B4918FB7F894EC91611126C01D
:1003700030953E233C938FBF08952730A9F0283055
:10038000C9F0243049F7809180008F7D03C08091AF
:1003900080008F7780938000DFCF84B58F7784BD16
:1003A000DBCF84B58F7DFBCF8091B0008F778093BA
:1003B000B000D2CF8091B0008F7DF9CF3E2BDACF45
:1003C000CF93DF9390E0FC01E057FF4F24918458D6
:1003D0009F4FFC0184918823D1F090E0880F991FF2
:1003E000FC01E859FF4FA591B491FC01EE58FF4F75
:1003F000C591D49161110EC09FB7F8948C91E22FF2
:10040000E0958E238C932881E223E8839FBFDF91C0
:10041000CF9108958FB7F894EC91E22BEC938FBFB6
:10042000F6CF8E50806480937C0080917A00806447
:1004300080937A0080917A0086FDFCCF80917800CD
:100440009091790008953FB7F89480913E02909181
:100450003F02A0914002B091410226B5A89B05C081
:100460002F3F19F00196A11DB11D3FBFBA2FA92F33
:10047000982F8827BC01CD01620F711D811D911D30
:1004800042E0660F771F881F991F4A95D1F708959C
:100490008F929F92AF92BF92CF92DF92EF92FF9294
:1004A0004B015C010E9423026B017C010E9423022C
:1004B0006C197D098E099F09683E7340810591057D
:1004C000A8F321E0821A9108A108B10888EEC80EAD
:1004D00083E0D81EE11CF11C81149104A104B10435
:1004E00029F7FF90EF90DF90CF90BF90AF909F9053
:1004F0008F900895089590E080E00895CF92DF9264
:10050000EF92FF92CF93DF93EC01603282E07807A5
:10051000CCF5653B710514F064EB70E0898128E847
:1005200030E0281B310987FD3395220F331F220F3E
:10053000331F6901330FEE08FF088A8128E532E096
:10054000281B310987FD3395220F331F220F331FDC
:10055000032E000C440B550B2C193D094E095F0965
:10056000DB0177FF02C0B0E0A0E00E94930924EB1A
:1005700030E040E050E00E946909C20ED31EE41E44
:10058000F51EB601E881EC3070F5298188E890E02D
:10059000821B910927FD9395880F991F880F991F3A
:1005A000681779077CF02A8188E592E0821B91091F
:1005B00027FD9395880F991F880F991F6817790752
:1005C0000CF4CB010297880F991F4FB7F8942E2F88
:1005D00030E0F901EE0FFF1FE20FF31FEF51FD4F67
:1005E000928381834FBFDF91CF91FF90EF90DF9097
:1005F000CF9008951F93CF93DF93EC01162F88813E
:100600008C3008F04EC061E0812F0E94E0018881AB
:10061000282F30E0F901EE0FFF1FE20FF31FEF511B
:10062000FD4F1F736081607C612B608319821A8289
:100630002CE0622F0E94CC09829FB001112430E08F
:1006400020E0AB01420F531FFA01EE0FFF1FE40F32
:10065000F51FEF51FD4F908196FD16C02F5F3F4F64
:100660002C30310571F781110FC01092800082E0AB
:10067000809381001092850010928400B19A80913D
:100680006F00826080936F00E8818E2F90E0FC0104
:10069000EE0FFF1FE80FF91FEF51FD4F80818064BF
:1006A00080838881DF91CF911F910895CF93DF934D
:1006B000EC0160E08E810E94940161E08E810E94D5
:1006C000940160E08E810E9494018BE891E0019793
:1006D000F1F7DF91CF910895CF92DF92EF92FF92E1
:1006E0000F931F93CF93DF936C017C0187E0E80E9B
:1006F000F11CD0E0C0E0062F10E0B8010C2E02C0C3
:10070000759567950A94E2F76170F70181917F0111
:100710000E9494012196C430D10579F7C601DF917A
:10072000CF911F910F91FF90EF90DF90CF900C949D
:100730005603CF92DF92EF92FF920F931F93CF93C6
:10074000DF93EC01F62E642F8C810E9494018D8141
:100750008F3F19F060E00E9494010F2D10E08F850B
:1007600084FF25C06E0187E0C80ED11CF12CE12C5E
:10077000B8010E2C02C0759567950A94E2F7617076
:10078000F60181916F010E949401FFEFEF1AFF0AB9
:1007900088E0E816F10461F7CE01DF91CF911F9157
:1007A0000F91FF90EF90DF90CF900C945603B8011B
:1007B00084E0759567958A95E1F7CE010E946C03F8
:1007C0006F2DCE01DF91CF911F910F91FF90EF9090
:1007D000DF90CF900C946C0340E0682F8CE093E0A6
:1007E0000C949903CF93DF93813029F090911B03F0
:1007F000986090931B0380931F031092200380E462
:100800008093210380E18093220380E5809323037A
:1008100061E0809110030E94E001809111038F3FFD
:1008200019F061E00E94E00161E0809112030E94F2
:10083000E001CCE0D3E09E012C50334080911B03BB
:1008400084FD0BC084E090E021962817390744F41A
:1008500061E08E810E94E001EECF88E090E0F4CF6D
:100860008BE39DE00197F1F760E0809110030E9417
:10087000940160E0809112030E9494018091110321
:100880008F3F19F060E00E94940180911B0384FD6A
:1008900039C063E08CE093E00E946C03CBE4D6E4C3
:1008A000CE010197F1F763E08CE093E00E946C03C6
:1008B0002197F1F763E08CE093E00E946C0383E5FD
:1008C00092E00197F1F762E08CE093E00E946C0304
:1008D00080911B0380620E94EC0384E080931C03E0
:1008E0008CE00E94EC0381E00E94EC038BE39FE12B
:1008F0000197F1F782E080931D0386E0DF91CF91AD
:100900000C94EC0380620E94EC038BE496E4019764
:10091000F1F780911B0380620E94EC0383E592E073
:100920000197F1F780911B0380620E94EC03D0CF06
:1009300090911F03691710F06FEF690FE62FF0E039
:10094000E45FFC4F9489890F80680C94EC0341E0CC
:100950000E94990381E090E00895FB01019000203E
:10096000E9F73197AF01461B570BDC01ED91FC9184
:100970000280F381E02D0994BC018CE093E00C949B
:10098000AD044F925F926F927F928F929F92AF923F
:10099000BF92CF92DF92EF92FF920F931F93CF936C
:1009A000DF93CDB7DEB7A1970FB6F894DEBF0FBEC9
:1009B000CDBF8C016B01770FEE08FF08F7FE50C02A
:1009C000DC01ED91FC910190F081E02D6DE2099543
:1009D0005C0122273327A9012C193D094E095F0923
:1009E00019A2FE01B1967F019AE0492E512C612C8B
:1009F000712CCA01B901A30192010E949B09605D9B
:100A0000D7016E937D01211531054105510589F707
:100A100090E080E0109721F0BD01C8010E94AD0474
:100A2000A80EB91E6EE171E0C8010E94AD048A0DE6
:100A30009B1DA1960FB6F894DEBF0FBECDBFDF9110
:100A4000CF911F910F91FF90EF90DF90CF90BF90CB
:100A5000AF909F908F907F906F905F904F90089590
:100A6000A701960119A2FE01B1967F018AE0882EA6
:100A7000912CA12CB12CCA01B901A50194010E94AD
:100A80009B09605DD7016E937D01211531054105FC
:100A9000510589F7B12CA12C109721F2BD01C80195
:100AA0000E94AD045C01BECFCF93DF9381E10E9431
:100AB00011028C329140C4F4C4EBD0E0BE0186E058
:100AC00093E00E947E026AE070E080E090E00E9485
:100AD00048022A9799F78091360290913702019641
:100AE000909337028093360282E10E9411028C3289
:100AF0009140D4F580913602909137020197A1F58B
:100B0000D0E0C0E0BE0186E093E00E947E026AE091
:100B100070E080E090E00E9448022A96C43BD10534
:100B200089F780914202909143020197909343028A
:100B300080934202109237021092360262E080E007
:100B40000E94980481E291E00E94BC0462E08EE081
:100B50000E94980460914202709143028CE093E0FD
:100B6000DF91CF910C94C104DF91CF9108951F9232
:100B70000F920FB60F9211242F933F934F935F93D1
:100B80006F937F938F939F93AF93BF93EF93FF9355
:100B900084E492E00E94C400FF91EF91BF91AF9175
:100BA0009F918F917F916F915F914F913F912F9185
:100BB0000F900FBE0F901F9018951F920F920FB6B7
:100BC0000F9211242F938F939F93EF93FF93E091B4
:100BD0005402F09155028081E0915A02F0915B023B
:100BE00082FD1BC0908180915D028F5F8F73209189
:100BF0005E02821741F0E0915D02F0E0EC5BFD4F98
:100C0000958F80935D02FF91EF919F918F912F912E
:100C10000F900FBE0F901F9018958081F4CF1F92F8
:100C20000F920FB60F9211242F933F938F939F93A0
:100C3000AF93BF9380913A0290913B02A0913C0206
:100C4000B0913D023091390223E0230F2D3758F542
:100C50000196A11DB11D2093390280933A02909311
:100C60003B02A0933C02B0933D0280913E029091E2
:100C70003F02A0914002B09141020196A11DB11D19
:100C800080933E0290933F02A0934002B0934102B2
:100C9000BF91AF919F918F913F912F910F900FBE78
:100CA0000F901F90189526E8230F0296A11DB11DE5
:100CB000D2CF1F920F920FB60F9211242F933F9312
:100CC0004F935F936F937F938F939F93AF93BF9354
:100CD000CF93DF93EF93FF9380913802C091050388
:100CE000D0E087FF24C0109285001092840080918C
:100CF00038028F5F8093380280913802082E000CF2
:100D0000990B8C179D0724F4809138028C30C4F124
:100D10008091840090918500049680349C4908F469
:100D20007AC08091840090918500049676C080916D
:100D30003802082E000C990B8C179D07C4F6E09121
:100D400038028E2FEE0F990BFC01EE0FFF1FE80FFC
:100D5000F91FEF51FD4F808186FFC9CFE091380226
:100D60008E2FEE0F990BFC01EE0FFF1FE80FF91FFE
:100D7000EF51FD4F808160E08F730E949401B7CFE7
:100D80002091840030918500E09138028E2FEE0F83
:100D9000990BFC01EE0FFF1FE80FF91FEF51FD4FFC
:100DA00081819281820F931F9093890080938800A4
:100DB000E09138028E2FEE0F990BFC01EE0FFF1F12
:100DC000E80FF91FEF51FD4F808186FF11C0E091C0
:100DD00038028E2FEE0F990BFC01EE0FFF1FE80F6C
:100DE000F91FEF51FD4F808161E08F730E949401E4
:100DF000FF91EF91DF91CF91BF91AF919F918F9133
:100E00007F916F915F914F913F912F910F900FBE06
:100E10000F901F90189580E49CE99093890080932F
:100E200088008FEF80933802E3CFCF931092470270
:100E30001092460288EE93E0A0E0B0E08093480272
:100E400090934902A0934A02B0934B0284E091E050
:100E5000909345028093440285EC90E09093510278
:100E60008093500284EC90E090935302809352025E
:100E700080EC90E0909355028093540281EC90E0D6
:100E8000909357028093560282EC90E0909359021F
:100E90008093580286EC90E090935B0280935A0214
:100EA00010925D0210925E0210925F021092600238
:100EB00010920F0310920E0386E191E090930D03C0
:100EC00080930C038CE080931003CFEFC093110349
:100ED0008BE08093120385E08093130384E080937A
:100EE000140383E08093150382E08093160310922D
:100EF0001703109218031092190310921A031092FC
:100F00001B0381E00E94F203809105038C3050F5B1
:100F100091E0980F909305038093090390E0FC0102
:100F2000EE0FFF1FE80FF91FEF51FD4F88EB9BE01D
:100F300092838183809105038C30B8F491E0980FFF
:100F4000909305038093060390E0FC01EE0FFF1FD2
:100F5000E80FF91FEF51FD4F88EB9BE092838183EF
:100F6000CF910895C0930903E5CF8FEF80930603D7
:100F7000F7CF789484B5826084BD84B5816084BDE8
:100F800085B5826085BD85B5816085BD80916E0027
:100F9000816080936E001092810080918100826058
:100FA0008093810080918100816080938100809195
:100FB00080008160809380008091B1008460809384
:100FC000B1008091B00081608093B00080917A0080
:100FD000846080937A0080917A00826080937A00A6
:100FE00080917A00816080937A0080917A00806895
:100FF00080937A001092C10084E00E94F20381E3A2
:1010000091E00E94BC0461E080E00E9498048FE3BC
:1010100091E00E94BC0466E070E089E093E00E94E9
:10102000FA026AE070E086E093E00E94FA0261E072
:1010300087E00E94E00160E080E10E94E00160E062
:101040008FE00E94E00160E08EE00E94E00160E03D
:1010500081E10E94E00160E082E10E94E00161E044
:1010600080E00E9498048DE491E00E94BC04CAE5EF
:10107000D0E0BE0189E093E00E947E0264E170E06E
:1010800080E090E00E944802219799F761E080E0BB
:101090000E9498048BE591E00E94BC04CAE5D0E070
:1010A000BE0186E093E00E947E0264E170E080E091
:1010B00090E00E9448022196C43BD10589F761E087
:1010C00080E00E94980489E691E00E94BC0464EFED
:1010D00071E080E090E00E94480281E00E94EC0311
:1010E0008BE39FE10197F1F780E0E82E80E0F82E96
:1010F0006AE070E080E090E00E944802D0E0C0E04A
:101100008EE00E9411028D3291400CF49AC08FE063
:101110000E941102BC0184E492E00E94C1046AE0D2
:1011200070E080E090E00E9448028091420290913D
:1011300043020397D9F460E080E00E94980487E7B7
:1011400091E00E94BC0461E080E00E94980486E87F
:1011500091E00E94BC0463E080E00E94980487E96B
:1011600091E00E94BC040E945405DFCF0E94540508
:101170002097C1F461E080E00E94980488EA91E041
:101180000E94BC0460E080E00E94980489EB91E03A
:101190000E94BC0463E080E00E9498048AEC91E025
:1011A0000E94BC0480E10E9411028C3291403CF507
:1011B00061E080E00E9498048BED91E00E94BC0405
:1011C00061E087E00E94940160ED77E080E090E0CC
:1011D0000E94480260E087E00E949401219661E04D
:1011E00080E00E9498048CEE91E00E94BC0460E0D4
:1011F00080E00E9498048DEF91E00E94BC048FE093
:101200000E9411028C3291400CF07ACF63E080E0B2
:101210000E9498048EE092E00E94BC0410E000E07E
:10122000B80189E093E00E947E026AE070E080E00D
:1012300090E00E944802065F1F4F043B110581F7B2
:101240005FCF8EE00E9411028C329140B4F5CD2B1D
:10125000A1F1C4EBD0E0BE0189E093E00E947E02E0
:101260006AE070E080E090E00E9448022A9799F7D7
:1012700063E080E00E9498048AE192E00E94BC044E
:101280008091420290914302019690934302809391
:10129000420262E080E00E94980486E292E00E94AE
:1012A000BC0462E08EE00E9498046091420270915A
:1012B00043028CE093E00E94C104E114F10409F4BC
:1012C00017CF0E945301882309F412CF0E94000017
:1012D0000FCF052E97FB1EF400940E94800957FD46
:1012E00007D00E949B0907FC03D04EF40C948009A0
:1012F00050954095309521953F4F4F4F5F4F089542
:1013000090958095709561957F4F8F4F9F4F089571
:101310000E94BD09A59F900DB49F900DA49F800DC4
:10132000911D11240895B7FF0C9488090E94880923
:10133000821B930B0895A1E21A2EAA1BBB1BFD0171
:101340000DC0AA1FBB1FEE1FFF1FA217B307E407A4
:10135000F50720F0A21BB30BE40BF50B661F771FFC
:10136000881F991F1A9469F76095709580959095DC
:101370009B01AC01BD01CF010895A29FB001B39FB5
:10138000C001A39F700D811D1124911DB29F700D8E
:10139000811D1124911D0895991B79E004C0991FA6
:1013A000961708F0961B881F7A95C9F780950895BF
:1013B000EE0FFF1F0590F491E02D0994F894FFCFF4
:1013C00000000000E600670187003301B8009600C6
:1013D000AA0000000000A70467017B027A020D0A40
:1013E00000456E746572656420436F756E743A20B3
:1013F0000048656C6C6F2C20576F726C6421004C38
:101400004F4144494E47202020202020004C4F418E
:1014100044494E472E2020202020004C4F41444973
:101420004E472E2E20202020004C4F4144494E474D
:101430002E2E2E202020004C696D69742045786581
:101440006564656420004B65657020356D204469D6
:101450007374616E63650047617465204C6F636BE4
:1014600065642057616974004170706C7920536124
:101470006E6974697A65722000504C45415345206D
:10148000434F4D4520494E2020004761746520633D
:101490006C6F7365642020202020005465737420D5
:1014A00054656D706572617475726500486561742C
:1014B0002026204D61736B20446F6E650053616E72
:1014C0006974697A657220446F6E652020004761F7
:1014D0007465204F70656E656400476174652043D4
:1014E0006C6F73656400456E746572656420436F4C
:0614F000756E743A000065
:00000001FF
